{
  "contractName": "portal",
  "abi": [
    {
      "inputs": [
        {
          "internalType": "address",
          "name": "_RToken",
          "type": "address"
        },
        {
          "internalType": "address",
          "name": "_BToken",
          "type": "address"
        },
        {
          "internalType": "address",
          "name": "_prog",
          "type": "address"
        }
      ],
      "payable": false,
      "stateMutability": "nonpayable",
      "type": "constructor"
    },
    {
      "constant": true,
      "inputs": [],
      "name": "BToken",
      "outputs": [
        {
          "internalType": "contract BlockXToken",
          "name": "",
          "type": "address"
        }
      ],
      "payable": false,
      "stateMutability": "view",
      "type": "function"
    },
    {
      "constant": true,
      "inputs": [
        {
          "internalType": "uint256",
          "name": "",
          "type": "uint256"
        }
      ],
      "name": "DonationReceived",
      "outputs": [
        {
          "internalType": "uint256",
          "name": "",
          "type": "uint256"
        }
      ],
      "payable": false,
      "stateMutability": "view",
      "type": "function"
    },
    {
      "constant": true,
      "inputs": [],
      "name": "RToken",
      "outputs": [
        {
          "internalType": "contract RewardToken",
          "name": "",
          "type": "address"
        }
      ],
      "payable": false,
      "stateMutability": "view",
      "type": "function"
    },
    {
      "constant": true,
      "inputs": [
        {
          "internalType": "address",
          "name": "",
          "type": "address"
        },
        {
          "internalType": "uint256",
          "name": "",
          "type": "uint256"
        }
      ],
      "name": "ans",
      "outputs": [
        {
          "internalType": "bool",
          "name": "",
          "type": "bool"
        }
      ],
      "payable": false,
      "stateMutability": "view",
      "type": "function"
    },
    {
      "constant": true,
      "inputs": [
        {
          "internalType": "uint256",
          "name": "",
          "type": "uint256"
        }
      ],
      "name": "ans_prog",
      "outputs": [
        {
          "internalType": "bool",
          "name": "",
          "type": "bool"
        }
      ],
      "payable": false,
      "stateMutability": "view",
      "type": "function"
    },
    {
      "constant": true,
      "inputs": [
        {
          "internalType": "address",
          "name": "",
          "type": "address"
        }
      ],
      "name": "blacklisted",
      "outputs": [
        {
          "internalType": "bool",
          "name": "",
          "type": "bool"
        }
      ],
      "payable": false,
      "stateMutability": "view",
      "type": "function"
    },
    {
      "constant": true,
      "inputs": [
        {
          "internalType": "address",
          "name": "",
          "type": "address"
        },
        {
          "internalType": "uint256",
          "name": "",
          "type": "uint256"
        }
      ],
      "name": "doner",
      "outputs": [
        {
          "internalType": "address",
          "name": "id",
          "type": "address"
        },
        {
          "internalType": "string",
          "name": "Name",
          "type": "string"
        },
        {
          "internalType": "uint256",
          "name": "Amount",
          "type": "uint256"
        },
        {
          "internalType": "string",
          "name": "Contact_Details",
          "type": "string"
        },
        {
          "internalType": "string",
          "name": "mail_id",
          "type": "string"
        },
        {
          "internalType": "bool",
          "name": "donated",
          "type": "bool"
        }
      ],
      "payable": false,
      "stateMutability": "view",
      "type": "function"
    },
    {
      "constant": true,
      "inputs": [
        {
          "internalType": "address",
          "name": "",
          "type": "address"
        },
        {
          "internalType": "uint256",
          "name": "",
          "type": "uint256"
        }
      ],
      "name": "isRegistered",
      "outputs": [
        {
          "internalType": "bool",
          "name": "",
          "type": "bool"
        }
      ],
      "payable": false,
      "stateMutability": "view",
      "type": "function"
    },
    {
      "constant": true,
      "inputs": [],
      "name": "name1",
      "outputs": [
        {
          "internalType": "string",
          "name": "",
          "type": "string"
        }
      ],
      "payable": false,
      "stateMutability": "view",
      "type": "function"
    },
    {
      "constant": true,
      "inputs": [],
      "name": "prog",
      "outputs": [
        {
          "internalType": "contract program",
          "name": "",
          "type": "address"
        }
      ],
      "payable": false,
      "stateMutability": "view",
      "type": "function"
    },
    {
      "constant": true,
      "inputs": [
        {
          "internalType": "address",
          "name": "",
          "type": "address"
        },
        {
          "internalType": "uint256",
          "name": "",
          "type": "uint256"
        }
      ],
      "name": "role",
      "outputs": [
        {
          "internalType": "uint256",
          "name": "",
          "type": "uint256"
        }
      ],
      "payable": false,
      "stateMutability": "view",
      "type": "function"
    },
    {
      "constant": true,
      "inputs": [
        {
          "internalType": "address",
          "name": "",
          "type": "address"
        },
        {
          "internalType": "uint256",
          "name": "",
          "type": "uint256"
        }
      ],
      "name": "stakingBalance",
      "outputs": [
        {
          "internalType": "uint256",
          "name": "",
          "type": "uint256"
        }
      ],
      "payable": false,
      "stateMutability": "view",
      "type": "function"
    },
    {
      "constant": true,
      "inputs": [
        {
          "internalType": "address",
          "name": "",
          "type": "address"
        },
        {
          "internalType": "uint256",
          "name": "",
          "type": "uint256"
        }
      ],
      "name": "validater",
      "outputs": [
        {
          "internalType": "address",
          "name": "",
          "type": "address"
        }
      ],
      "payable": false,
      "stateMutability": "view",
      "type": "function"
    },
    {
      "constant": true,
      "inputs": [
        {
          "internalType": "uint256",
          "name": "",
          "type": "uint256"
        }
      ],
      "name": "validater_info",
      "outputs": [
        {
          "internalType": "address",
          "name": "validater",
          "type": "address"
        },
        {
          "internalType": "uint256",
          "name": "reward_tokens",
          "type": "uint256"
        }
      ],
      "payable": false,
      "stateMutability": "view",
      "type": "function"
    },
    {
      "constant": false,
      "inputs": [
        {
          "internalType": "string",
          "name": "name",
          "type": "string"
        },
        {
          "internalType": "uint256",
          "name": "Fund_needed",
          "type": "uint256"
        },
        {
          "internalType": "uint256",
          "name": "duration",
          "type": "uint256"
        },
        {
          "internalType": "string",
          "name": "descrption",
          "type": "string"
        },
        {
          "internalType": "string",
          "name": "email",
          "type": "string"
        }
      ],
      "name": "Program_creation",
      "outputs": [],
      "payable": false,
      "stateMutability": "nonpayable",
      "type": "function"
    },
    {
      "constant": false,
      "inputs": [
        {
          "internalType": "uint256",
          "name": "program_id",
          "type": "uint256"
        },
        {
          "internalType": "string",
          "name": "descrption",
          "type": "string"
        },
        {
          "internalType": "string",
          "name": "mail_id",
          "type": "string"
        },
        {
          "internalType": "string",
          "name": "contact_details",
          "type": "string"
        }
      ],
      "name": "project_completion_proof",
      "outputs": [],
      "payable": false,
      "stateMutability": "nonpayable",
      "type": "function"
    },
    {
      "constant": false,
      "inputs": [
        {
          "internalType": "uint256",
          "name": "program_id",
          "type": "uint256"
        },
        {
          "internalType": "string",
          "name": "name",
          "type": "string"
        },
        {
          "internalType": "string",
          "name": "email",
          "type": "string"
        },
        {
          "internalType": "string",
          "name": "contact_details",
          "type": "string"
        },
        {
          "internalType": "uint256",
          "name": "amount",
          "type": "uint256"
        }
      ],
      "name": "Donate",
      "outputs": [],
      "payable": false,
      "stateMutability": "nonpayable",
      "type": "function"
    },
    {
      "constant": false,
      "inputs": [
        {
          "internalType": "string",
          "name": "name",
          "type": "string"
        },
        {
          "internalType": "string",
          "name": "title",
          "type": "string"
        },
        {
          "internalType": "string",
          "name": "contact_details",
          "type": "string"
        },
        {
          "internalType": "string",
          "name": "email",
          "type": "string"
        },
        {
          "internalType": "uint256",
          "name": "program_id",
          "type": "uint256"
        }
      ],
      "name": "register_ServiceProvider",
      "outputs": [],
      "payable": false,
      "stateMutability": "nonpayable",
      "type": "function"
    },
    {
      "constant": false,
      "inputs": [
        {
          "internalType": "string",
          "name": "name",
          "type": "string"
        },
        {
          "internalType": "string",
          "name": "title",
          "type": "string"
        },
        {
          "internalType": "string",
          "name": "contact_details",
          "type": "string"
        },
        {
          "internalType": "string",
          "name": "email",
          "type": "string"
        },
        {
          "internalType": "uint256",
          "name": "program_id",
          "type": "uint256"
        }
      ],
      "name": "register_Volunteer",
      "outputs": [],
      "payable": false,
      "stateMutability": "nonpayable",
      "type": "function"
    },
    {
      "constant": false,
      "inputs": [
        {
          "internalType": "string",
          "name": "work_by_volunteer",
          "type": "string"
        },
        {
          "internalType": "uint256",
          "name": "program_id",
          "type": "uint256"
        },
        {
          "internalType": "uint256",
          "name": "duration",
          "type": "uint256"
        },
        {
          "internalType": "string",
          "name": "desc",
          "type": "string"
        },
        {
          "internalType": "string",
          "name": "email",
          "type": "string"
        },
        {
          "internalType": "string",
          "name": "contact",
          "type": "string"
        }
      ],
      "name": "volunteerproof",
      "outputs": [],
      "payable": false,
      "stateMutability": "nonpayable",
      "type": "function"
    },
    {
      "constant": false,
      "inputs": [
        {
          "internalType": "uint256",
          "name": "program_id",
          "type": "uint256"
        },
        {
          "internalType": "string",
          "name": "provided_service",
          "type": "string"
        },
        {
          "internalType": "string",
          "name": "descrption",
          "type": "string"
        },
        {
          "internalType": "string",
          "name": "mail_id",
          "type": "string"
        },
        {
          "internalType": "string",
          "name": "contact_details",
          "type": "string"
        }
      ],
      "name": "serviceproof",
      "outputs": [],
      "payable": false,
      "stateMutability": "nonpayable",
      "type": "function"
    },
    {
      "constant": false,
      "inputs": [
        {
          "internalType": "address",
          "name": "Address",
          "type": "address"
        },
        {
          "internalType": "uint256",
          "name": "id",
          "type": "uint256"
        },
        {
          "internalType": "bool",
          "name": "ver",
          "type": "bool"
        }
      ],
      "name": "validateproof",
      "outputs": [],
      "payable": false,
      "stateMutability": "nonpayable",
      "type": "function"
    },
    {
      "constant": false,
      "inputs": [
        {
          "internalType": "address",
          "name": "Address",
          "type": "address"
        },
        {
          "internalType": "uint256",
          "name": "id",
          "type": "uint256"
        },
        {
          "internalType": "bool",
          "name": "ver",
          "type": "bool"
        }
      ],
      "name": "validateprog",
      "outputs": [],
      "payable": false,
      "stateMutability": "nonpayable",
      "type": "function"
    },
    {
      "constant": false,
      "inputs": [
        {
          "internalType": "address",
          "name": "Address",
          "type": "address"
        }
      ],
      "name": "check_validater",
      "outputs": [],
      "payable": false,
      "stateMutability": "nonpayable",
      "type": "function"
    },
    {
      "constant": false,
      "inputs": [
        {
          "internalType": "address",
          "name": "Address",
          "type": "address"
        },
        {
          "internalType": "uint256",
          "name": "id",
          "type": "uint256"
        }
      ],
      "name": "select_validater",
      "outputs": [],
      "payable": false,
      "stateMutability": "nonpayable",
      "type": "function"
    },
    {
      "constant": false,
      "inputs": [
        {
          "internalType": "address",
          "name": "Address",
          "type": "address"
        },
        {
          "internalType": "uint256",
          "name": "id",
          "type": "uint256"
        }
      ],
      "name": "get_reward",
      "outputs": [],
      "payable": false,
      "stateMutability": "nonpayable",
      "type": "function"
    },
    {
      "constant": false,
      "inputs": [
        {
          "internalType": "address",
          "name": "Address",
          "type": "address"
        },
        {
          "internalType": "uint256",
          "name": "program_id",
          "type": "uint256"
        },
        {
          "internalType": "uint256",
          "name": "_amount",
          "type": "uint256"
        }
      ],
      "name": "stakeTokens",
      "outputs": [],
      "payable": false,
      "stateMutability": "nonpayable",
      "type": "function"
    },
    {
      "constant": false,
      "inputs": [
        {
          "internalType": "address",
          "name": "Address",
          "type": "address"
        },
        {
          "internalType": "uint256",
          "name": "program_id",
          "type": "uint256"
        }
      ],
      "name": "unstakeTokens",
      "outputs": [],
      "payable": false,
      "stateMutability": "nonpayable",
      "type": "function"
    },
    {
      "constant": false,
      "inputs": [
        {
          "internalType": "address",
          "name": "to",
          "type": "address"
        },
        {
          "internalType": "uint256",
          "name": "id",
          "type": "uint256"
        },
        {
          "internalType": "uint256",
          "name": "amount",
          "type": "uint256"
        }
      ],
      "name": "toservice",
      "outputs": [],
      "payable": false,
      "stateMutability": "nonpayable",
      "type": "function"
    }
  ],
  "bytecode": "0x60806040526040518060400160405280600881526020017f504c4154464f524d000000000000000000000000000000000000000000000000815250600090805190602001906200005192919062000228565b506000600e553480156200006457600080fd5b506040516200580038038062005800833981810160405260608110156200008a57600080fd5b8101908080519060200190929190805190602001909291908051906020019092919050505082600160006101000a81548173ffffffffffffffffffffffffffffffffffffffff021916908373ffffffffffffffffffffffffffffffffffffffff16021790555081600260006101000a81548173ffffffffffffffffffffffffffffffffffffffff021916908373ffffffffffffffffffffffffffffffffffffffff16021790555080600360006101000a81548173ffffffffffffffffffffffffffffffffffffffff021916908373ffffffffffffffffffffffffffffffffffffffff160217905550600760405180604001604052803373ffffffffffffffffffffffffffffffffffffffff16815260200160008152509080600181540180825580915050906001820390600052602060002090600202016000909192909190915060008201518160000160006101000a81548173ffffffffffffffffffffffffffffffffffffffff021916908373ffffffffffffffffffffffffffffffffffffffff16021790555060208201518160010155505050505050620002d7565b828054600181600116156101000203166002900490600052602060002090601f016020900481019282601f106200026b57805160ff19168380011785556200029c565b828001600101855582156200029c579182015b828111156200029b5782518255916020019190600101906200027e565b5b509050620002ab9190620002af565b5090565b620002d491905b80821115620002d0576000816000905550600101620002b6565b5090565b90565b61551980620002e76000396000f3fe608060405234801561001057600080fd5b50600436106101cf5760003560e01c80639874a79611610104578063dbac26e9116100a2578063e89a173e11610071578063e89a173e14611612578063e8c7f89114611660578063ef38f072146116ba578063f5e4a10614611944576101cf565b8063dbac26e914611292578063dcc81590146112ee578063de017cc714611582578063e31392bc146115c8576101cf565b8063a8f1602c116100de578063a8f1602c14610f8f578063ada7e97514610ff5578063d4538cd114611039578063d9bede571461121d576101cf565b80639874a79614610eb55780639c7f3ef514610ef75780639fe8b0c414610f45576101cf565b806348b0b72a116101715780638917cc2a1161014b5780638917cc2a14610d3d57806393de8b0a14610d9f5780639425865f14610e05578063962a625a14610e67576101cf565b806348b0b72a14610903578063537be23014610af65780636d9814e114610cf3576101cf565b80630ef9ccb8116101ad5780630ef9ccb81461050e5780633fbf066014610568578063446ef423146105f657806347c8efa714610880576101cf565b80630299ed2e146101d457806308009e8a1461045e5780630cff8e8f146104b6575b600080fd5b61045c600480360360a08110156101ea57600080fd5b81019080803590602001909291908035906020019064010000000081111561021157600080fd5b82018360208201111561022357600080fd5b8035906020019184600183028401116401000000008311171561024557600080fd5b91908080601f016020809104026020016040519081016040528093929190818152602001838380828437600081840152601f19601f820116905080830192505050505050509192919290803590602001906401000000008111156102a857600080fd5b8201836020820111156102ba57600080fd5b803590602001918460018302840111640100000000831117156102dc57600080fd5b91908080601f016020809104026020016040519081016040528093929190818152602001838380828437600081840152601f19601f8201169050808301925050505050505091929192908035906020019064010000000081111561033f57600080fd5b82018360208201111561035157600080fd5b8035906020019184600183028401116401000000008311171561037357600080fd5b91908080601f016020809104026020016040519081016040528093929190818152602001838380828437600081840152601f19601f820116905080830192505050505050509192919290803590602001906401000000008111156103d657600080fd5b8201836020820111156103e857600080fd5b8035906020019184600183028401116401000000008311171561040a57600080fd5b91908080601f016020809104026020016040519081016040528093929190818152602001838380828437600081840152601f19601f820116905080830192505050505050509192919290505050611b41565b005b6104b46004803603606081101561047457600080fd5b81019080803573ffffffffffffffffffffffffffffffffffffffff1690602001909291908035906020019092919080359060200190929190505050611dc7565b005b61050c600480360360608110156104cc57600080fd5b81019080803573ffffffffffffffffffffffffffffffffffffffff1690602001909291908035906020019092919080359060200190929190505050611f9b565b005b6105666004803603606081101561052457600080fd5b81019080803573ffffffffffffffffffffffffffffffffffffffff16906020019092919080359060200190929190803515159060200190929190505050612160565b005b6105b46004803603604081101561057e57600080fd5b81019080803573ffffffffffffffffffffffffffffffffffffffff1690602001909291908035906020019092919050505061235f565b604051808273ffffffffffffffffffffffffffffffffffffffff1673ffffffffffffffffffffffffffffffffffffffff16815260200191505060405180910390f35b61087e600480360360a081101561060c57600080fd5b810190808035906020019064010000000081111561062957600080fd5b82018360208201111561063b57600080fd5b8035906020019184600183028401116401000000008311171561065d57600080fd5b91908080601f016020809104026020016040519081016040528093929190818152602001838380828437600081840152601f19601f820116905080830192505050505050509192919290803590602001906401000000008111156106c057600080fd5b8201836020820111156106d257600080fd5b803590602001918460018302840111640100000000831117156106f457600080fd5b91908080601f016020809104026020016040519081016040528093929190818152602001838380828437600081840152601f19601f8201169050808301925050505050505091929192908035906020019064010000000081111561075757600080fd5b82018360208201111561076957600080fd5b8035906020019184600183028401116401000000008311171561078b57600080fd5b91908080601f016020809104026020016040519081016040528093929190818152602001838380828437600081840152601f19601f820116905080830192505050505050509192919290803590602001906401000000008111156107ee57600080fd5b82018360208201111561080057600080fd5b8035906020019184600183028401116401000000008311171561082257600080fd5b91908080601f016020809104026020016040519081016040528093929190818152602001838380828437600081840152601f19601f820116905080830192505050505050509192919290803590602001909291905050506123a1565b005b610888612876565b6040518080602001828103825283818151815260200191508051906020019080838360005b838110156108c85780820151818401526020810190506108ad565b50505050905090810190601f1680156108f55780820380516001836020036101000a031916815260200191505b509250505060405180910390f35b610af46004803603608081101561091957600080fd5b81019080803590602001909291908035906020019064010000000081111561094057600080fd5b82018360208201111561095257600080fd5b8035906020019184600183028401116401000000008311171561097457600080fd5b91908080601f016020809104026020016040519081016040528093929190818152602001838380828437600081840152601f19601f820116905080830192505050505050509192919290803590602001906401000000008111156109d757600080fd5b8201836020820111156109e957600080fd5b80359060200191846001830284011164010000000083111715610a0b57600080fd5b91908080601f016020809104026020016040519081016040528093929190818152602001838380828437600081840152601f19601f82011690508083019250505050505050919291929080359060200190640100000000811115610a6e57600080fd5b820183602082011115610a8057600080fd5b80359060200191846001830284011164010000000083111715610aa257600080fd5b91908080601f016020809104026020016040519081016040528093929190818152602001838380828437600081840152601f19601f820116905080830192505050505050509192919290505050612914565b005b610cf1600480360360a0811015610b0c57600080fd5b810190808035906020019092919080359060200190640100000000811115610b3357600080fd5b820183602082011115610b4557600080fd5b80359060200191846001830284011164010000000083111715610b6757600080fd5b91908080601f016020809104026020016040519081016040528093929190818152602001838380828437600081840152601f19601f82011690508083019250505050505050919291929080359060200190640100000000811115610bca57600080fd5b820183602082011115610bdc57600080fd5b80359060200191846001830284011164010000000083111715610bfe57600080fd5b91908080601f016020809104026020016040519081016040528093929190818152602001838380828437600081840152601f19601f82011690508083019250505050505050919291929080359060200190640100000000811115610c6157600080fd5b820183602082011115610c7357600080fd5b80359060200191846001830284011164010000000083111715610c9557600080fd5b91908080601f016020809104026020016040519081016040528093929190818152602001838380828437600081840152601f19601f82011690508083019250505050505050919291929080359060200190929190505050612b2c565b005b610cfb6133df565b604051808273ffffffffffffffffffffffffffffffffffffffff1673ffffffffffffffffffffffffffffffffffffffff16815260200191505060405180910390f35b610d8960048036036040811015610d5357600080fd5b81019080803573ffffffffffffffffffffffffffffffffffffffff16906020019092919080359060200190929190505050613405565b6040518082815260200191505060405180910390f35b610deb60048036036040811015610db557600080fd5b81019080803573ffffffffffffffffffffffffffffffffffffffff1690602001909291908035906020019092919050505061342a565b604051808215151515815260200191505060405180910390f35b610e5160048036036040811015610e1b57600080fd5b81019080803573ffffffffffffffffffffffffffffffffffffffff16906020019092919080359060200190929190505050613459565b6040518082815260200191505060405180910390f35b610eb360048036036040811015610e7d57600080fd5b81019080803573ffffffffffffffffffffffffffffffffffffffff1690602001909291908035906020019092919050505061347e565b005b610ee160048036036020811015610ecb57600080fd5b8101908080359060200190929190505050613aed565b6040518082815260200191505060405180910390f35b610f4360048036036040811015610f0d57600080fd5b81019080803573ffffffffffffffffffffffffffffffffffffffff16906020019092919080359060200190929190505050613b05565b005b610f4d613c77565b604051808273ffffffffffffffffffffffffffffffffffffffff1673ffffffffffffffffffffffffffffffffffffffff16815260200191505060405180910390f35b610fdb60048036036040811015610fa557600080fd5b81019080803573ffffffffffffffffffffffffffffffffffffffff16906020019092919080359060200190929190505050613c9d565b604051808215151515815260200191505060405180910390f35b6110376004803603602081101561100b57600080fd5b81019080803573ffffffffffffffffffffffffffffffffffffffff169060200190929190505050613ccc565b005b6110856004803603604081101561104f57600080fd5b81019080803573ffffffffffffffffffffffffffffffffffffffff169060200190929190803590602001909291905050506140f5565b604051808773ffffffffffffffffffffffffffffffffffffffff1673ffffffffffffffffffffffffffffffffffffffff16815260200180602001868152602001806020018060200185151515158152602001848103845289818151815260200191508051906020019080838360005b8381101561110f5780820151818401526020810190506110f4565b50505050905090810190601f16801561113c5780820380516001836020036101000a031916815260200191505b50848103835287818151815260200191508051906020019080838360005b8381101561117557808201518184015260208101905061115a565b50505050905090810190601f1680156111a25780820380516001836020036101000a031916815260200191505b50848103825286818151815260200191508051906020019080838360005b838110156111db5780820151818401526020810190506111c0565b50505050905090810190601f1680156112085780820380516001836020036101000a031916815260200191505b50995050505050505050505060405180910390f35b6112496004803603602081101561123357600080fd5b8101908080359060200190929190505050614333565b604051808373ffffffffffffffffffffffffffffffffffffffff1673ffffffffffffffffffffffffffffffffffffffff1681526020018281526020019250505060405180910390f35b6112d4600480360360208110156112a857600080fd5b81019080803573ffffffffffffffffffffffffffffffffffffffff169060200190929190505050614384565b604051808215151515815260200191505060405180910390f35b611580600480360360c081101561130457600080fd5b810190808035906020019064010000000081111561132157600080fd5b82018360208201111561133357600080fd5b8035906020019184600183028401116401000000008311171561135557600080fd5b91908080601f016020809104026020016040519081016040528093929190818152602001838380828437600081840152601f19601f8201169050808301925050505050505091929192908035906020019092919080359060200190929190803590602001906401000000008111156113cc57600080fd5b8201836020820111156113de57600080fd5b8035906020019184600183028401116401000000008311171561140057600080fd5b91908080601f016020809104026020016040519081016040528093929190818152602001838380828437600081840152601f19601f8201169050808301925050505050505091929192908035906020019064010000000081111561146357600080fd5b82018360208201111561147557600080fd5b8035906020019184600183028401116401000000008311171561149757600080fd5b91908080601f016020809104026020016040519081016040528093929190818152602001838380828437600081840152601f19601f820116905080830192505050505050509192919290803590602001906401000000008111156114fa57600080fd5b82018360208201111561150c57600080fd5b8035906020019184600183028401116401000000008311171561152e57600080fd5b91908080601f016020809104026020016040519081016040528093929190818152602001838380828437600081840152601f19601f8201169050808301925050505050505091929192905050506143a4565b005b6115ae6004803603602081101561159857600080fd5b8101908080359060200190929190505050614633565b604051808215151515815260200191505060405180910390f35b6115d0614653565b604051808273ffffffffffffffffffffffffffffffffffffffff1673ffffffffffffffffffffffffffffffffffffffff16815260200191505060405180910390f35b61165e6004803603604081101561162857600080fd5b81019080803573ffffffffffffffffffffffffffffffffffffffff16906020019092919080359060200190929190505050614679565b005b6116b86004803603606081101561167657600080fd5b81019080803573ffffffffffffffffffffffffffffffffffffffff16906020019092919080359060200190929190803515159060200190929190505050614884565b005b611942600480360360a08110156116d057600080fd5b81019080803590602001906401000000008111156116ed57600080fd5b8201836020820111156116ff57600080fd5b8035906020019184600183028401116401000000008311171561172157600080fd5b91908080601f016020809104026020016040519081016040528093929190818152602001838380828437600081840152601f19601f8201169050808301925050505050505091929192908035906020019064010000000081111561178457600080fd5b82018360208201111561179657600080fd5b803590602001918460018302840111640100000000831117156117b857600080fd5b91908080601f016020809104026020016040519081016040528093929190818152602001838380828437600081840152601f19601f8201169050808301925050505050505091929192908035906020019064010000000081111561181b57600080fd5b82018360208201111561182d57600080fd5b8035906020019184600183028401116401000000008311171561184f57600080fd5b91908080601f016020809104026020016040519081016040528093929190818152602001838380828437600081840152601f19601f820116905080830192505050505050509192919290803590602001906401000000008111156118b257600080fd5b8201836020820111156118c457600080fd5b803590602001918460018302840111640100000000831117156118e657600080fd5b91908080601f016020809104026020016040519081016040528093929190818152602001838380828437600081840152601f19601f82011690508083019250505050505050919291929080359060200190929190505050614ac0565b005b611b3f600480360360a081101561195a57600080fd5b810190808035906020019064010000000081111561197757600080fd5b82018360208201111561198957600080fd5b803590602001918460018302840111640100000000831117156119ab57600080fd5b91908080601f016020809104026020016040519081016040528093929190818152602001838380828437600081840152601f19601f820116905080830192505050505050509192919290803590602001909291908035906020019092919080359060200190640100000000811115611a2257600080fd5b820183602082011115611a3457600080fd5b80359060200191846001830284011164010000000083111715611a5657600080fd5b91908080601f016020809104026020016040519081016040528093929190818152602001838380828437600081840152601f19601f82011690508083019250505050505050919291929080359060200190640100000000811115611ab957600080fd5b820183602082011115611acb57600080fd5b80359060200191846001830284011164010000000083111715611aed57600080fd5b91908080601f016020809104026020016040519081016040528093929190818152602001838380828437600081840152601f19601f820116905080830192505050505050509192919290505050614f95565b005b600360009054906101000a900473ffffffffffffffffffffffffffffffffffffffff1673ffffffffffffffffffffffffffffffffffffffff166326832dc83387878787876040518763ffffffff1660e01b8152600401808773ffffffffffffffffffffffffffffffffffffffff1673ffffffffffffffffffffffffffffffffffffffff16815260200186815260200180602001806020018060200180602001858103855289818151815260200191508051906020019080838360005b83811015611c18578082015181840152602081019050611bfd565b50505050905090810190601f168015611c455780820380516001836020036101000a031916815260200191505b50858103845288818151815260200191508051906020019080838360005b83811015611c7e578082015181840152602081019050611c63565b50505050905090810190601f168015611cab5780820380516001836020036101000a031916815260200191505b50858103835287818151815260200191508051906020019080838360005b83811015611ce4578082015181840152602081019050611cc9565b50505050905090810190601f168015611d115780820380516001836020036101000a031916815260200191505b50858103825286818151815260200191508051906020019080838360005b83811015611d4a578082015181840152602081019050611d2f565b50505050905090810190601f168015611d775780820380516001836020036101000a031916815260200191505b509a5050505050505050505050600060405180830381600087803b158015611d9e57600080fd5b505af1158015611db2573d6000803e3d6000fd5b50505050611dc03386613b05565b5050505050565b6004600083815260200190815260200160002054811115611e50576040517f08c379a00000000000000000000000000000000000000000000000000000000081526004018080602001828103825260138152602001807f696e73756666696369656e7420616d6f756e740000000000000000000000000081525060200191505060405180910390fd5b600260009054906101000a900473ffffffffffffffffffffffffffffffffffffffff1673ffffffffffffffffffffffffffffffffffffffff166323b872dd3085846040518463ffffffff1660e01b8152600401808473ffffffffffffffffffffffffffffffffffffffff1673ffffffffffffffffffffffffffffffffffffffff1681526020018373ffffffffffffffffffffffffffffffffffffffff1673ffffffffffffffffffffffffffffffffffffffff1681526020018281526020019350505050602060405180830381600087803b158015611f2d57600080fd5b505af1158015611f41573d6000803e3d6000fd5b505050506040513d6020811015611f5757600080fd5b810190808051906020019092919050505050806004600084815260200190815260200160002054036004600084815260200190815260200160002081905550505050565b600260009054906101000a900473ffffffffffffffffffffffffffffffffffffffff1673ffffffffffffffffffffffffffffffffffffffff166323b872dd8430846040518463ffffffff1660e01b8152600401808473ffffffffffffffffffffffffffffffffffffffff1673ffffffffffffffffffffffffffffffffffffffff1681526020018373ffffffffffffffffffffffffffffffffffffffff1673ffffffffffffffffffffffffffffffffffffffff1681526020018281526020019350505050602060405180830381600087803b15801561207857600080fd5b505af115801561208c573d6000803e3d6000fd5b505050506040513d60208110156120a257600080fd5b81019080805190602001909291905050505080600860008573ffffffffffffffffffffffffffffffffffffffff1673ffffffffffffffffffffffffffffffffffffffff16815260200190815260200160002060008481526020019081526020016000205401600860008573ffffffffffffffffffffffffffffffffffffffff1673ffffffffffffffffffffffffffffffffffffffff168152602001908152602001600020600084815260200190815260200160002081905550505050565b806006600084815260200190815260200160002060006101000a81548160ff021916908315150217905550600160009054906101000a900473ffffffffffffffffffffffffffffffffffffffff1673ffffffffffffffffffffffffffffffffffffffff1663a9059cbb600d60008673ffffffffffffffffffffffffffffffffffffffff1673ffffffffffffffffffffffffffffffffffffffff168152602001908152602001600020600085815260200190815260200160002060009054906101000a900473ffffffffffffffffffffffffffffffffffffffff1660026040518363ffffffff1660e01b8152600401808373ffffffffffffffffffffffffffffffffffffffff1673ffffffffffffffffffffffffffffffffffffffff16815260200182815260200192505050602060405180830381600087803b1580156122a557600080fd5b505af11580156122b9573d6000803e3d6000fd5b505050506040513d60208110156122cf57600080fd5b81019080805190602001909291905050505061235a600d60008573ffffffffffffffffffffffffffffffffffffffff1673ffffffffffffffffffffffffffffffffffffffff168152602001908152602001600020600084815260200190815260200160002060009054906101000a900473ffffffffffffffffffffffffffffffffffffffff16613ccc565b505050565b600d6020528160005260406000206020528060005260406000206000915091509054906101000a900473ffffffffffffffffffffffffffffffffffffffff1681565b600b60003373ffffffffffffffffffffffffffffffffffffffff1673ffffffffffffffffffffffffffffffffffffffff16815260200190815260200160002060009054906101000a900460ff1615612461576040517f08c379a000000000000000000000000000000000000000000000000000000000815260040180806020018281038252600b8152602001807f4e6f7420616c6c6f77656400000000000000000000000000000000000000000081525060200191505060405180910390fd5b600c60003373ffffffffffffffffffffffffffffffffffffffff1673ffffffffffffffffffffffffffffffffffffffff168152602001908152602001600020600082815260200190815260200160002060009054906101000a900460ff1615612532576040517f08c379a00000000000000000000000000000000000000000000000000000000081526004018080602001828103825260128152602001807f416c72656164792072656769737465726564000000000000000000000000000081525060200191505060405180910390fd5b600360009054906101000a900473ffffffffffffffffffffffffffffffffffffffff1673ffffffffffffffffffffffffffffffffffffffff16632dbfbcc03387878787876040518763ffffffff1660e01b8152600401808773ffffffffffffffffffffffffffffffffffffffff1673ffffffffffffffffffffffffffffffffffffffff1681526020018060200180602001806020018060200186815260200185810385528a818151815260200191508051906020019080838360005b838110156126095780820151818401526020810190506125ee565b50505050905090810190601f1680156126365780820380516001836020036101000a031916815260200191505b50858103845289818151815260200191508051906020019080838360005b8381101561266f578082015181840152602081019050612654565b50505050905090810190601f16801561269c5780820380516001836020036101000a031916815260200191505b50858103835288818151815260200191508051906020019080838360005b838110156126d55780820151818401526020810190506126ba565b50505050905090810190601f1680156127025780820380516001836020036101000a031916815260200191505b50858103825287818151815260200191508051906020019080838360005b8381101561273b578082015181840152602081019050612720565b50505050905090810190601f1680156127685780820380516001836020036101000a031916815260200191505b509a5050505050505050505050600060405180830381600087803b15801561278f57600080fd5b505af11580156127a3573d6000803e3d6000fd5b505050506001600c60003373ffffffffffffffffffffffffffffffffffffffff1673ffffffffffffffffffffffffffffffffffffffff168152602001908152602001600020600083815260200190815260200160002060006101000a81548160ff0219169083151502179055506003600a60003373ffffffffffffffffffffffffffffffffffffffff1673ffffffffffffffffffffffffffffffffffffffff16815260200190815260200160002060008381526020019081526020016000208190555061286f33613ccc565b5050505050565b60008054600181600116156101000203166002900480601f01602080910402602001604051908101604052809291908181526020018280546001816001161561010002031660029004801561290c5780601f106128e15761010080835404028352916020019161290c565b820191906000526020600020905b8154815290600101906020018083116128ef57829003601f168201915b505050505081565b600360009054906101000a900473ffffffffffffffffffffffffffffffffffffffff1673ffffffffffffffffffffffffffffffffffffffff16639d717ef433868686866040518663ffffffff1660e01b8152600401808673ffffffffffffffffffffffffffffffffffffffff1673ffffffffffffffffffffffffffffffffffffffff168152602001858152602001806020018060200180602001848103845287818151815260200191508051906020019080838360005b838110156129e65780820151818401526020810190506129cb565b50505050905090810190601f168015612a135780820380516001836020036101000a031916815260200191505b50848103835286818151815260200191508051906020019080838360005b83811015612a4c578082015181840152602081019050612a31565b50505050905090810190601f168015612a795780820380516001836020036101000a031916815260200191505b50848103825285818151815260200191508051906020019080838360005b83811015612ab2578082015181840152602081019050612a97565b50505050905090810190601f168015612adf5780820380516001836020036101000a031916815260200191505b5098505050505050505050600060405180830381600087803b158015612b0457600080fd5b505af1158015612b18573d6000803e3d6000fd5b50505050612b263385613b05565b50505050565b600b60003373ffffffffffffffffffffffffffffffffffffffff1673ffffffffffffffffffffffffffffffffffffffff16815260200190815260200160002060009054906101000a900460ff1615612bec576040517f08c379a000000000000000000000000000000000000000000000000000000000815260040180806020018281038252600b8152602001807f4e6f7420616c6c6f77656400000000000000000000000000000000000000000081525060200191505060405180910390fd5b60008111612c62576040517f08c379a00000000000000000000000000000000000000000000000000000000081526004018080602001828103825260128152602001807f616d6f756e742063616e6e6f742062652030000000000000000000000000000081525060200191505060405180910390fd5b6000600360009054906101000a900473ffffffffffffffffffffffffffffffffffffffff1673ffffffffffffffffffffffffffffffffffffffff1663c0b8f531876040518263ffffffff1660e01b81526004018082815260200191505060206040518083038186803b158015612cd757600080fd5b505afa158015612ceb573d6000803e3d6000fd5b505050506040513d6020811015612d0157600080fd5b81019080805190602001909291905050509050600060046000888152602001908152602001600020548203905082811015612d3a578092505b600260009054906101000a900473ffffffffffffffffffffffffffffffffffffffff1673ffffffffffffffffffffffffffffffffffffffff166323b872dd3330866040518463ffffffff1660e01b8152600401808473ffffffffffffffffffffffffffffffffffffffff1673ffffffffffffffffffffffffffffffffffffffff1681526020018373ffffffffffffffffffffffffffffffffffffffff1673ffffffffffffffffffffffffffffffffffffffff1681526020018281526020019350505050602060405180830381600087803b158015612e1757600080fd5b505af1158015612e2b573d6000803e3d6000fd5b505050506040513d6020811015612e4157600080fd5b810190808051906020019092919050505050600960003373ffffffffffffffffffffffffffffffffffffffff1673ffffffffffffffffffffffffffffffffffffffff168152602001908152602001600020600088815260200190815260200160002060050160009054906101000a900460ff1661301b576040518060c001604052803373ffffffffffffffffffffffffffffffffffffffff1681526020018781526020016000815260200185815260200186815260200160011515815250600960003373ffffffffffffffffffffffffffffffffffffffff1673ffffffffffffffffffffffffffffffffffffffff168152602001908152602001600020600089815260200190815260200160002060008201518160000160006101000a81548173ffffffffffffffffffffffffffffffffffffffff021916908373ffffffffffffffffffffffffffffffffffffffff1602179055506020820151816001019080519060200190612fb292919061543f565b50604082015181600201556060820151816003019080519060200190612fd992919061543f565b506080820151816004019080519060200190612ff692919061543f565b5060a08201518160050160006101000a81548160ff0219169083151502179055509050505b82600960003373ffffffffffffffffffffffffffffffffffffffff1673ffffffffffffffffffffffffffffffffffffffff16815260200190815260200160002060008981526020019081526020016000206002015401600960003373ffffffffffffffffffffffffffffffffffffffff1673ffffffffffffffffffffffffffffffffffffffff16815260200190815260200160002060008981526020019081526020016000206002018190555082600460008981526020019081526020016000205401600460008981526020019081526020016000208190555060fa8311156131e957600160009054906101000a900473ffffffffffffffffffffffffffffffffffffffff1673ffffffffffffffffffffffffffffffffffffffff1663a9059cbb33600a6040518363ffffffff1660e01b8152600401808373ffffffffffffffffffffffffffffffffffffffff1673ffffffffffffffffffffffffffffffffffffffff16815260200182815260200192505050602060405180830381600087803b1580156131a857600080fd5b505af11580156131bc573d6000803e3d6000fd5b505050506040513d60208110156131d257600080fd5b8101908080519060200190929190505050506133cd565b60c883106132dc57600160009054906101000a900473ffffffffffffffffffffffffffffffffffffffff1673ffffffffffffffffffffffffffffffffffffffff1663a9059cbb3360086040518363ffffffff1660e01b8152600401808373ffffffffffffffffffffffffffffffffffffffff1673ffffffffffffffffffffffffffffffffffffffff16815260200182815260200192505050602060405180830381600087803b15801561329b57600080fd5b505af11580156132af573d6000803e3d6000fd5b505050506040513d60208110156132c557600080fd5b8101908080519060200190929190505050506133cc565b606483106133cb57600160009054906101000a900473ffffffffffffffffffffffffffffffffffffffff1673ffffffffffffffffffffffffffffffffffffffff1663a9059cbb3360046040518363ffffffff1660e01b8152600401808373ffffffffffffffffffffffffffffffffffffffff1673ffffffffffffffffffffffffffffffffffffffff16815260200182815260200192505050602060405180830381600087803b15801561338e57600080fd5b505af11580156133a2573d6000803e3d6000fd5b505050506040513d60208110156133b857600080fd5b8101908080519060200190929190505050505b5b5b6133d633613ccc565b50505050505050565b600260009054906101000a900473ffffffffffffffffffffffffffffffffffffffff1681565b6008602052816000526040600020602052806000526040600020600091509150505481565b60056020528160005260406000206020528060005260406000206000915091509054906101000a900460ff1681565b600a602052816000526040600020602052806000526040600020600091509150505481565b6000600a60008473ffffffffffffffffffffffffffffffffffffffff1673ffffffffffffffffffffffffffffffffffffffff1681526020019081526020016000206000838152602001908152602001600020549050600181141561368e57600560008473ffffffffffffffffffffffffffffffffffffffff1673ffffffffffffffffffffffffffffffffffffffff168152602001908152602001600020600083815260200190815260200160002060009054906101000a900460ff161561363457600160009054906101000a900473ffffffffffffffffffffffffffffffffffffffff1673ffffffffffffffffffffffffffffffffffffffff1663a9059cbb8460056040518363ffffffff1660e01b8152600401808373ffffffffffffffffffffffffffffffffffffffff1673ffffffffffffffffffffffffffffffffffffffff16815260200182815260200192505050602060405180830381600087803b1580156135e957600080fd5b505af11580156135fd573d6000803e3d6000fd5b505050506040513d602081101561361357600080fd5b81019080805190602001909291905050505061362f8383614679565b61368d565b6001600b60008573ffffffffffffffffffffffffffffffffffffffff1673ffffffffffffffffffffffffffffffffffffffff16815260200190815260200160002060006101000a81548160ff0219169083151502179055505b5b600281141561383f57600560008473ffffffffffffffffffffffffffffffffffffffff1673ffffffffffffffffffffffffffffffffffffffff168152602001908152602001600020600083815260200190815260200160002060009054906101000a900460ff16156137e557600160009054906101000a900473ffffffffffffffffffffffffffffffffffffffff1673ffffffffffffffffffffffffffffffffffffffff1663a9059cbb8460036040518363ffffffff1660e01b8152600401808373ffffffffffffffffffffffffffffffffffffffff1673ffffffffffffffffffffffffffffffffffffffff16815260200182815260200192505050602060405180830381600087803b1580156137a457600080fd5b505af11580156137b8573d6000803e3d6000fd5b505050506040513d60208110156137ce57600080fd5b81019080805190602001909291905050505061383e565b6001600b60008573ffffffffffffffffffffffffffffffffffffffff1673ffffffffffffffffffffffffffffffffffffffff16815260200190815260200160002060006101000a81548160ff0219169083151502179055505b5b6003811415613adf57600560008473ffffffffffffffffffffffffffffffffffffffff1673ffffffffffffffffffffffffffffffffffffffff168152602001908152602001600020600083815260200190815260200160002060009054906101000a900460ff1615613a85576000600360009054906101000a900473ffffffffffffffffffffffffffffffffffffffff1673ffffffffffffffffffffffffffffffffffffffff1663b589f37585856040518363ffffffff1660e01b8152600401808373ffffffffffffffffffffffffffffffffffffffff1673ffffffffffffffffffffffffffffffffffffffff1681526020018281526020019250505060206040518083038186803b15801561395457600080fd5b505afa158015613968573d6000803e3d6000fd5b505050506040513d602081101561397e57600080fd5b810190808051906020019092919050505090506000600182029050600160009054906101000a900473ffffffffffffffffffffffffffffffffffffffff1673ffffffffffffffffffffffffffffffffffffffff1663a9059cbb86836040518363ffffffff1660e01b8152600401808373ffffffffffffffffffffffffffffffffffffffff1673ffffffffffffffffffffffffffffffffffffffff16815260200182815260200192505050602060405180830381600087803b158015613a4257600080fd5b505af1158015613a56573d6000803e3d6000fd5b505050506040513d6020811015613a6c57600080fd5b8101908080519060200190929190505050505050613ade565b6001600b60008573ffffffffffffffffffffffffffffffffffffffff1673ffffffffffffffffffffffffffffffffffffffff16815260200190815260200160002060006101000a81548160ff0219169083151502179055505b5b613ae883613ccc565b505050565b60046020528060005260406000206000915090505481565b6000600160078054905003905060008190505b60008110613c715760078181548110613b2d57fe5b906000526020600020906002020160000160009054906101000a900473ffffffffffffffffffffffffffffffffffffffff1673ffffffffffffffffffffffffffffffffffffffff168473ffffffffffffffffffffffffffffffffffffffff1614613c635760078181548110613b9e57fe5b906000526020600020906002020160000160009054906101000a900473ffffffffffffffffffffffffffffffffffffffff16600d60008673ffffffffffffffffffffffffffffffffffffffff1673ffffffffffffffffffffffffffffffffffffffff168152602001908152602001600020600085815260200190815260200160002060006101000a81548173ffffffffffffffffffffffffffffffffffffffff021916908373ffffffffffffffffffffffffffffffffffffffff160217905550613c71565b808060019003915050613b18565b50505050565b600160009054906101000a900473ffffffffffffffffffffffffffffffffffffffff1681565b600c6020528160005260406000206020528060005260406000206000915091509054906101000a900460ff1681565b600060078054905090506000811415613e6957600760405180604001604052808473ffffffffffffffffffffffffffffffffffffffff168152602001600160009054906101000a900473ffffffffffffffffffffffffffffffffffffffff1673ffffffffffffffffffffffffffffffffffffffff166370a08231866040518263ffffffff1660e01b8152600401808273ffffffffffffffffffffffffffffffffffffffff1673ffffffffffffffffffffffffffffffffffffffff16815260200191505060206040518083038186803b158015613da757600080fd5b505afa158015613dbb573d6000803e3d6000fd5b505050506040513d6020811015613dd157600080fd5b81019080805190602001909291905050508152509080600181540180825580915050906001820390600052602060002090600202016000909192909190915060008201518160000160006101000a81548173ffffffffffffffffffffffffffffffffffffffff021916908373ffffffffffffffffffffffffffffffffffffffff160217905550602082015181600101555050506140f1565b600160009054906101000a900473ffffffffffffffffffffffffffffffffffffffff1673ffffffffffffffffffffffffffffffffffffffff166370a08231836040518263ffffffff1660e01b8152600401808273ffffffffffffffffffffffffffffffffffffffff1673ffffffffffffffffffffffffffffffffffffffff16815260200191505060206040518083038186803b158015613f0857600080fd5b505afa158015613f1c573d6000803e3d6000fd5b505050506040513d6020811015613f3257600080fd5b810190808051906020019092919050505060076001830381548110613f5357fe5b906000526020600020906002020160010154116140f057600760405180604001604052808473ffffffffffffffffffffffffffffffffffffffff168152602001600160009054906101000a900473ffffffffffffffffffffffffffffffffffffffff1673ffffffffffffffffffffffffffffffffffffffff166370a08231866040518263ffffffff1660e01b8152600401808273ffffffffffffffffffffffffffffffffffffffff1673ffffffffffffffffffffffffffffffffffffffff16815260200191505060206040518083038186803b15801561403257600080fd5b505afa158015614046573d6000803e3d6000fd5b505050506040513d602081101561405c57600080fd5b81019080805190602001909291905050508152509080600181540180825580915050906001820390600052602060002090600202016000909192909190915060008201518160000160006101000a81548173ffffffffffffffffffffffffffffffffffffffff021916908373ffffffffffffffffffffffffffffffffffffffff160217905550602082015181600101555050505b5b5050565b6009602052816000526040600020602052806000526040600020600091509150508060000160009054906101000a900473ffffffffffffffffffffffffffffffffffffffff1690806001018054600181600116156101000203166002900480601f0160208091040260200160405190810160405280929190818152602001828054600181600116156101000203166002900480156141d45780601f106141a9576101008083540402835291602001916141d4565b820191906000526020600020905b8154815290600101906020018083116141b757829003601f168201915b505050505090806002015490806003018054600181600116156101000203166002900480601f0160208091040260200160405190810160405280929190818152602001828054600181600116156101000203166002900480156142785780601f1061424d57610100808354040283529160200191614278565b820191906000526020600020905b81548152906001019060200180831161425b57829003601f168201915b505050505090806004018054600181600116156101000203166002900480601f0160208091040260200160405190810160405280929190818152602001828054600181600116156101000203166002900480156143165780601f106142eb57610100808354040283529160200191614316565b820191906000526020600020905b8154815290600101906020018083116142f957829003601f168201915b5050505050908060050160009054906101000a900460ff16905086565b6007818154811061434057fe5b90600052602060002090600202016000915090508060000160009054906101000a900473ffffffffffffffffffffffffffffffffffffffff16908060010154905082565b600b6020528060005260406000206000915054906101000a900460ff1681565b600360009054906101000a900473ffffffffffffffffffffffffffffffffffffffff1673ffffffffffffffffffffffffffffffffffffffff166319a6ea74338888888888886040518863ffffffff1660e01b8152600401808873ffffffffffffffffffffffffffffffffffffffff1673ffffffffffffffffffffffffffffffffffffffff1681526020018060200187815260200186815260200180602001806020018060200185810385528b818151815260200191508051906020019080838360005b83811015614482578082015181840152602081019050614467565b50505050905090810190601f1680156144af5780820380516001836020036101000a031916815260200191505b50858103845288818151815260200191508051906020019080838360005b838110156144e85780820151818401526020810190506144cd565b50505050905090810190601f1680156145155780820380516001836020036101000a031916815260200191505b50858103835287818151815260200191508051906020019080838360005b8381101561454e578082015181840152602081019050614533565b50505050905090810190601f16801561457b5780820380516001836020036101000a031916815260200191505b50858103825286818151815260200191508051906020019080838360005b838110156145b4578082015181840152602081019050614599565b50505050905090810190601f1680156145e15780820380516001836020036101000a031916815260200191505b509b505050505050505050505050600060405180830381600087803b15801561460957600080fd5b505af115801561461d573d6000803e3d6000fd5b5050505061462b3386613b05565b505050505050565b60066020528060005260406000206000915054906101000a900460ff1681565b600360009054906101000a900473ffffffffffffffffffffffffffffffffffffffff1681565b6000600860008473ffffffffffffffffffffffffffffffffffffffff1673ffffffffffffffffffffffffffffffffffffffff168152602001908152602001600020600083815260200190815260200160002054905060008111614744576040517f08c379a000000000000000000000000000000000000000000000000000000000815260040180806020018281038252601b8152602001807f7374616b696e672062616c616e63652063616e6e6f742062652030000000000081525060200191505060405180910390fd5b600260009054906101000a900473ffffffffffffffffffffffffffffffffffffffff1673ffffffffffffffffffffffffffffffffffffffff1663a9059cbb84836040518363ffffffff1660e01b8152600401808373ffffffffffffffffffffffffffffffffffffffff1673ffffffffffffffffffffffffffffffffffffffff16815260200182815260200192505050602060405180830381600087803b1580156147ed57600080fd5b505af1158015614801573d6000803e3d6000fd5b505050506040513d602081101561481757600080fd5b8101908080519060200190929190505050506000600860008573ffffffffffffffffffffffffffffffffffffffff1673ffffffffffffffffffffffffffffffffffffffff168152602001908152602001600020600084815260200190815260200160002081905550505050565b80600560008573ffffffffffffffffffffffffffffffffffffffff1673ffffffffffffffffffffffffffffffffffffffff168152602001908152602001600020600084815260200190815260200160002060006101000a81548160ff021916908315150217905550600160009054906101000a900473ffffffffffffffffffffffffffffffffffffffff1673ffffffffffffffffffffffffffffffffffffffff1663a9059cbb600d60008673ffffffffffffffffffffffffffffffffffffffff1673ffffffffffffffffffffffffffffffffffffffff168152602001908152602001600020600085815260200190815260200160002060009054906101000a900473ffffffffffffffffffffffffffffffffffffffff1660026040518363ffffffff1660e01b8152600401808373ffffffffffffffffffffffffffffffffffffffff1673ffffffffffffffffffffffffffffffffffffffff16815260200182815260200192505050602060405180830381600087803b158015614a0657600080fd5b505af1158015614a1a573d6000803e3d6000fd5b505050506040513d6020811015614a3057600080fd5b810190808051906020019092919050505050614abb600d60008573ffffffffffffffffffffffffffffffffffffffff1673ffffffffffffffffffffffffffffffffffffffff168152602001908152602001600020600084815260200190815260200160002060009054906101000a900473ffffffffffffffffffffffffffffffffffffffff16613ccc565b505050565b600b60003373ffffffffffffffffffffffffffffffffffffffff1673ffffffffffffffffffffffffffffffffffffffff16815260200190815260200160002060009054906101000a900460ff1615614b80576040517f08c379a000000000000000000000000000000000000000000000000000000000815260040180806020018281038252600b8152602001807f4e6f7420616c6c6f77656400000000000000000000000000000000000000000081525060200191505060405180910390fd5b600c60003373ffffffffffffffffffffffffffffffffffffffff1673ffffffffffffffffffffffffffffffffffffffff168152602001908152602001600020600082815260200190815260200160002060009054906101000a900460ff1615614c51576040517f08c379a00000000000000000000000000000000000000000000000000000000081526004018080602001828103825260128152602001807f416c72656164792072656769737465726564000000000000000000000000000081525060200191505060405180910390fd5b600360009054906101000a900473ffffffffffffffffffffffffffffffffffffffff1673ffffffffffffffffffffffffffffffffffffffff1663fd900d113387878787876040518763ffffffff1660e01b8152600401808773ffffffffffffffffffffffffffffffffffffffff1673ffffffffffffffffffffffffffffffffffffffff1681526020018060200180602001806020018060200186815260200185810385528a818151815260200191508051906020019080838360005b83811015614d28578082015181840152602081019050614d0d565b50505050905090810190601f168015614d555780820380516001836020036101000a031916815260200191505b50858103845289818151815260200191508051906020019080838360005b83811015614d8e578082015181840152602081019050614d73565b50505050905090810190601f168015614dbb5780820380516001836020036101000a031916815260200191505b50858103835288818151815260200191508051906020019080838360005b83811015614df4578082015181840152602081019050614dd9565b50505050905090810190601f168015614e215780820380516001836020036101000a031916815260200191505b50858103825287818151815260200191508051906020019080838360005b83811015614e5a578082015181840152602081019050614e3f565b50505050905090810190601f168015614e875780820380516001836020036101000a031916815260200191505b509a5050505050505050505050600060405180830381600087803b158015614eae57600080fd5b505af1158015614ec2573d6000803e3d6000fd5b505050506001600c60003373ffffffffffffffffffffffffffffffffffffffff1673ffffffffffffffffffffffffffffffffffffffff168152602001908152602001600020600083815260200190815260200160002060006101000a81548160ff0219169083151502179055506002600a60003373ffffffffffffffffffffffffffffffffffffffff1673ffffffffffffffffffffffffffffffffffffffff168152602001908152602001600020600083815260200190815260200160002081905550614f8e33613ccc565b5050505050565b600b60003373ffffffffffffffffffffffffffffffffffffffff1673ffffffffffffffffffffffffffffffffffffffff16815260200190815260200160002060009054906101000a900460ff1615615055576040517f08c379a000000000000000000000000000000000000000000000000000000000815260040180806020018281038252600b8152602001807f4e6f7420616c6c6f77656400000000000000000000000000000000000000000081525060200191505060405180910390fd5b6001600e5401600e8190555060fa600160009054906101000a900473ffffffffffffffffffffffffffffffffffffffff1673ffffffffffffffffffffffffffffffffffffffff166370a08231336040518263ffffffff1660e01b8152600401808273ffffffffffffffffffffffffffffffffffffffff1673ffffffffffffffffffffffffffffffffffffffff16815260200191505060206040518083038186803b15801561510257600080fd5b505afa158015615116573d6000803e3d6000fd5b505050506040513d602081101561512c57600080fd5b810190808051906020019092919050505010156151525761515133600e5460fa611f9b565b5b600360009054906101000a900473ffffffffffffffffffffffffffffffffffffffff1673ffffffffffffffffffffffffffffffffffffffff1663bc2153563387600e54888888886040518863ffffffff1660e01b8152600401808873ffffffffffffffffffffffffffffffffffffffff1673ffffffffffffffffffffffffffffffffffffffff16815260200180602001878152602001868152602001858152602001806020018060200184810384528a818151815260200191508051906020019080838360005b83811015615234578082015181840152602081019050615219565b50505050905090810190601f1680156152615780820380516001836020036101000a031916815260200191505b50848103835286818151815260200191508051906020019080838360005b8381101561529a57808201518184015260208101905061527f565b50505050905090810190601f1680156152c75780820380516001836020036101000a031916815260200191505b50848103825285818151815260200191508051906020019080838360005b838110156153005780820151818401526020810190506152e5565b50505050905090810190601f16801561532d5780820380516001836020036101000a031916815260200191505b509a5050505050505050505050600060405180830381600087803b15801561535457600080fd5b505af1158015615368573d6000803e3d6000fd5b505050506001600c60003373ffffffffffffffffffffffffffffffffffffffff1673ffffffffffffffffffffffffffffffffffffffff1681526020019081526020016000206000600e54815260200190815260200160002060006101000a81548160ff0219169083151502179055506001600a60003373ffffffffffffffffffffffffffffffffffffffff1673ffffffffffffffffffffffffffffffffffffffff1681526020019081526020016000206000600e5481526020019081526020016000208190555061543833613ccc565b5050505050565b828054600181600116156101000203166002900490600052602060002090601f016020900481019282601f1061548057805160ff19168380011785556154ae565b828001600101855582156154ae579182015b828111156154ad578251825591602001919060010190615492565b5b5090506154bb91906154bf565b5090565b6154e191905b808211156154dd5760008160009055506001016154c5565b5090565b9056fea265627a7a723158207b44f17286a918835aed4c492a8c55a7f6da3fbf84214032a5958c7dafc1feae64736f6c63430005100032",
  "source": "pragma solidity ^0.5.0;\r\n\r\nimport \"./BlockXToken.sol\";\r\nimport \"./RewardToken.sol\";\r\nimport \"./program.sol\";\r\n\r\ncontract portal {\r\n    string  public name1 = \"PLATFORM\";\r\n    RewardToken public RToken;\r\n    BlockXToken public BToken;\r\n    program public prog;\r\n\r\n    mapping(uint => uint) public DonationReceived;\r\n   \r\n     constructor(address _RToken, address _BToken, address _prog) public {\r\n        RToken = RewardToken(_RToken);\r\n        BToken = BlockXToken(_BToken);\r\n        prog = program(_prog);\r\n        validater_info.push(validater_details({validater:msg.sender,reward_tokens:0}));\r\n     }\r\n     \r\n    mapping(address =>mapping(uint => bool)) public ans;\r\n    mapping(uint => bool) public ans_prog;\r\n   \r\n    struct validater_details{\r\n        address validater;  \r\n        uint reward_tokens;\r\n    }\r\n   \r\n    validater_details[] public validater_info;\r\n   \r\n    struct Doner{\r\n        address id;\r\n        string Name;\r\n        uint Amount;\r\n        string Contact_Details;\r\n        string mail_id;\r\n        bool donated;\r\n    }\r\n   \r\n    mapping(address => mapping(uint => uint)) public stakingBalance;\r\n    mapping(address => mapping(uint => Doner)) public doner;\r\n    mapping(address => mapping(uint => uint)) public role;\r\n    mapping(address => bool) public blacklisted;\r\n    mapping(address => mapping(uint => bool)) public isRegistered;\r\n    mapping(address => mapping(uint => address)) public validater;\r\n   \r\n    uint project_count=0;\r\n   \r\n   \r\n    function Program_creation(string memory name, uint Fund_needed, uint duration, string memory descrption,string memory email) public{\r\n        require(!blacklisted[msg.sender], \"Not allowed\");\r\n        project_count = project_count + 1;\r\n        if(RToken.balanceOf(msg.sender)<250)\r\n        {\r\n            stakeTokens(msg.sender,project_count,250);\r\n        }\r\n        prog.Program_detail(msg.sender,name,project_count,Fund_needed, duration, descrption,email);\r\n        isRegistered[msg.sender][project_count] = true;\r\n        role[msg.sender][project_count] = 1;\r\n        check_validater(msg.sender);\r\n    }\r\n   \r\n    function project_completion_proof(uint program_id,string memory descrption, string memory mail_id, string memory contact_details) public{\r\n       prog.completion_proof(msg.sender,program_id,descrption, mail_id, contact_details);\r\n       select_validater(msg.sender, program_id);\r\n    }\r\n   \r\n    function Donate(uint program_id,string memory name,string memory email,string memory contact_details, uint amount) public {\r\n        require(!blacklisted[msg.sender], \"Not allowed\");\r\n        require(amount > 0, \"amount cannot be 0\");\r\n        uint Fund_needed = prog.Fund_details(program_id);\r\n        uint required = Fund_needed - DonationReceived[program_id];\r\n        if(required<amount){\r\n            amount=required;\r\n        }\r\n        BToken.transferFrom(msg.sender, address(this), amount);\r\n        if(!doner[msg.sender][program_id].donated){\r\n            doner[msg.sender][program_id] = Doner(msg.sender,name,0,contact_details,email,true);\r\n        }\r\n        doner[msg.sender][program_id].Amount = doner[msg.sender][program_id].Amount + amount;\r\n        DonationReceived[program_id] = DonationReceived[program_id] + amount;\r\n        if(amount>250){\r\n            RToken.transfer(msg.sender,10);\r\n        }\r\n        else if(amount>=200){\r\n            RToken.transfer(msg.sender,8);\r\n        }\r\n        else if(amount>=100){\r\n            RToken.transfer(msg.sender,4);\r\n        }\r\n        check_validater(msg.sender);\r\n    }\r\n   \r\n    function register_ServiceProvider(string memory name,string memory title,string memory contact_details, string memory email, uint program_id) public{\r\n        require(!blacklisted[msg.sender], \"Not allowed\");\r\n        require(!isRegistered[msg.sender][program_id],\"Already registered\");\r\n        prog.ServiceProvider_Info(msg.sender,name,title,contact_details,email,program_id);\r\n        isRegistered[msg.sender][program_id] = true;\r\n        role[msg.sender][program_id] = 2;\r\n        check_validater(msg.sender);\r\n    }\r\n   \r\n    function register_Volunteer(string memory name,string memory title,string memory contact_details, string memory email, uint program_id) public {\r\n        require(!blacklisted[msg.sender], \"Not allowed\");\r\n        require(!isRegistered[msg.sender][program_id],\"Already registered\");\r\n        prog.Volunteer_info(msg.sender,name,title,contact_details,email,program_id);\r\n        isRegistered[msg.sender][program_id] = true;\r\n        role[msg.sender][program_id] = 3;\r\n        check_validater(msg.sender);\r\n    }\r\n   \r\n    function volunteerproof(string memory work_by_volunteer,uint program_id, uint duration, string memory desc,string memory email, string memory contact) public{\r\n        prog.volunteerproof_Info(msg.sender, work_by_volunteer,program_id, duration, desc, email, contact);\r\n        select_validater(msg.sender, program_id);\r\n    }\r\n   \r\n    function serviceproof(uint program_id,string memory provided_service, string memory descrption, string memory mail_id, string memory contact_details) public{\r\n        prog.serviceproof_info(msg.sender,program_id, provided_service, descrption,mail_id, contact_details);\r\n        select_validater(msg.sender, program_id);\r\n    }\r\n   \r\n    function validateproof(address Address,uint id,bool ver) public{\r\n        ans[Address][id]=ver;\r\n        RToken.transfer(validater[Address][id],2);\r\n        check_validater(validater[Address][id]);\r\n    }\r\n   \r\n    function validateprog(address Address, uint id,bool ver) public{\r\n        ans_prog[id]=ver;\r\n        RToken.transfer(validater[Address][id],2);\r\n        check_validater(validater[Address][id]);\r\n    }\r\n   \r\n    function check_validater(address Address) public {\r\n        uint i = validater_info.length;\r\n        if(i==0){\r\n            validater_info.push(validater_details({validater:Address,reward_tokens:RToken.balanceOf(Address)}));\r\n        }\r\n        else{\r\n            if(validater_info[i-1].reward_tokens<= RToken.balanceOf(Address)){\r\n                validater_info.push(validater_details({validater:Address,reward_tokens:RToken.balanceOf(Address)}));\r\n            }\r\n        }\r\n    }\r\n   \r\n    function select_validater(address Address, uint id) public {\r\n        uint index = validater_info.length-1;\r\n        for(uint i=index;i>=0;i--)\r\n        {\r\n            if(Address != validater_info[i].validater){\r\n                validater[Address][id] = validater_info[i].validater;\r\n                break;\r\n            }\r\n        }\r\n    }\r\n   \r\n    function get_reward(address Address,uint id) public {\r\n        uint n = role[Address][id];\r\n        if(n==1){\r\n            if(ans[Address][id]){\r\n               RToken.transfer(Address,5);\r\n               unstakeTokens(Address, id);\r\n            }\r\n            else{\r\n                blacklisted[Address] = true;\r\n            }\r\n        }\r\n        if(n==2){\r\n            if(ans[Address][id]){\r\n                RToken.transfer(Address,3);\r\n            }\r\n            else{\r\n                blacklisted[Address] = true;\r\n            }\r\n        }\r\n        if(n==3){\r\n            if(ans[Address][id]){\r\n                uint duration = prog.get_duration(Address,id);\r\n                uint p = duration * 1;\r\n                RToken.transfer(Address,p);\r\n            }\r\n            else{\r\n                 blacklisted[Address] = true;\r\n            }\r\n        }\r\n        check_validater(Address);\r\n    }\r\n   \r\n    function stakeTokens(address Address, uint program_id, uint _amount) public {\r\n        BToken.transferFrom(Address, address(this), _amount);\r\n        stakingBalance[Address][program_id] = stakingBalance[Address][program_id] + _amount;\r\n    }\r\n   \r\n    function unstakeTokens(address Address, uint program_id) public {\r\n        uint balance = stakingBalance[Address][program_id];\r\n        require(balance > 0, \"staking balance cannot be 0\");\r\n        BToken.transfer(Address, balance);\r\n        stakingBalance[Address][program_id] = 0;\r\n    }\r\n   \r\n    function toservice(address to, uint id, uint amount) public{\r\n        require(amount<=DonationReceived[id],\"insufficient amount\");\r\n        BToken.transferFrom(address(this),to,amount);\r\n        DonationReceived[id]=DonationReceived[id]-amount;\r\n    }\r\n}\r\n",
  "sourcePath": "D:/Desktop/BLOCK X/contracts/Portal.sol",
  "compiler": {
    "name": "solc",
    "version": "0.5.16+commit.9c3226ce.Emscripten.clang"
  },
  "schemaVersion": "3.2.5",
  "updatedAt": "2020-09-23T09:08:43.489Z",
  "networkType": "ethereum",
  "devdoc": {
    "methods": {}
  },
  "userdoc": {
    "methods": {}
  }
}